{
  "contractName": "Blog",
  "abi": [
    {
      "inputs": [],
      "payable": false,
      "stateMutability": "nonpayable",
      "type": "constructor"
    },
    {
      "constant": true,
      "inputs": [],
      "name": "blogNumber",
      "outputs": [
        {
          "internalType": "uint256",
          "name": "",
          "type": "uint256"
        }
      ],
      "payable": false,
      "stateMutability": "view",
      "type": "function"
    },
    {
      "constant": true,
      "inputs": [
        {
          "internalType": "uint256",
          "name": "",
          "type": "uint256"
        }
      ],
      "name": "titleToData",
      "outputs": [
        {
          "internalType": "uint256",
          "name": "id",
          "type": "uint256"
        },
        {
          "internalType": "string",
          "name": "authorName",
          "type": "string"
        },
        {
          "internalType": "string",
          "name": "imageUrl",
          "type": "string"
        },
        {
          "internalType": "string",
          "name": "title",
          "type": "string"
        },
        {
          "internalType": "string",
          "name": "body",
          "type": "string"
        }
      ],
      "payable": false,
      "stateMutability": "view",
      "type": "function"
    },
    {
      "constant": false,
      "inputs": [
        {
          "internalType": "string",
          "name": "_authorName",
          "type": "string"
        },
        {
          "internalType": "string",
          "name": "_imageUrl",
          "type": "string"
        },
        {
          "internalType": "string",
          "name": "_title",
          "type": "string"
        },
        {
          "internalType": "string",
          "name": "_body",
          "type": "string"
        }
      ],
      "name": "createBlog",
      "outputs": [],
      "payable": false,
      "stateMutability": "nonpayable",
      "type": "function"
    }
  ],
  "bytecode": "0x608060405234801561001057600080fd5b5060008081548092919060010191905055506040518060a001604052806000548152602001604051806040016040528060078152602001665465737431303160c81b815250815260200160405180610100016040528060cf8152602001610a4f60cf9139815260408051808201825260088152675469746c6520233160c01b6020828101919091528084019190915281518083018352601481527f5468697320697320626f647920706172612e2e2e000000000000000000000000818301529282019290925260008054815260018084529190208351815583830151805191936100ff9385019291019061015c565b506040820151805161011b91600284019160209091019061015c565b506060820151805161013791600384019160209091019061015c565b506080820151805161015391600484019160209091019061015c565b509050506101f7565b828054600181600116156101000203166002900490600052602060002090601f016020900481019282601f1061019d57805160ff19168380011785556101ca565b828001600101855582156101ca579182015b828111156101ca5782518255916020019190600101906101af565b506101d69291506101da565b5090565b6101f491905b808211156101d657600081556001016101e0565b90565b610849806102066000396000f3fe608060405234801561001057600080fd5b50600436106100415760003560e01c806366e8243f146100465780638f4d179c14610214578063fc0dee0214610449575b600080fd5b6100636004803603602081101561005c57600080fd5b5035610463565b6040518086815260200180602001806020018060200180602001858103855289818151815260200191508051906020019080838360005b838110156100b257818101518382015260200161009a565b50505050905090810190601f1680156100df5780820380516001836020036101000a031916815260200191505b5085810384528851815288516020918201918a019080838360005b838110156101125781810151838201526020016100fa565b50505050905090810190601f16801561013f5780820380516001836020036101000a031916815260200191505b50858103835287518152875160209182019189019080838360005b8381101561017257818101518382015260200161015a565b50505050905090810190601f16801561019f5780820380516001836020036101000a031916815260200191505b50858103825286518152865160209182019188019080838360005b838110156101d25781810151838201526020016101ba565b50505050905090810190601f1680156101ff5780820380516001836020036101000a031916815260200191505b50995050505050505050505060405180910390f35b6104476004803603608081101561022a57600080fd5b810190602081018135600160201b81111561024457600080fd5b82018360208201111561025657600080fd5b803590602001918460018302840111600160201b8311171561027757600080fd5b91908080601f0160208091040260200160405190810160405280939291908181526020018383808284376000920191909152509295949360208101935035915050600160201b8111156102c957600080fd5b8201836020820111156102db57600080fd5b803590602001918460018302840111600160201b831117156102fc57600080fd5b91908080601f0160208091040260200160405190810160405280939291908181526020018383808284376000920191909152509295949360208101935035915050600160201b81111561034e57600080fd5b82018360208201111561036057600080fd5b803590602001918460018302840111600160201b8311171561038157600080fd5b91908080601f0160208091040260200160405190810160405280939291908181526020018383808284376000920191909152509295949360208101935035915050600160201b8111156103d357600080fd5b8201836020820111156103e557600080fd5b803590602001918460018302840111600160201b8311171561040657600080fd5b91908080601f0160208091040260200160405190810160405280939291908181526020018383808284376000920191909152509295506106bb945050505050565b005b610451610773565b60408051918252519081900360200190f35b600160208181526000928352604092839020805481840180548651600296821615610100026000190190911695909504601f810185900485028601850190965285855290949193929091908301828280156104ff5780601f106104d4576101008083540402835291602001916104ff565b820191906000526020600020905b8154815290600101906020018083116104e257829003601f168201915b50505060028085018054604080516020601f60001961010060018716150201909416959095049283018590048502810185019091528181529596959450909250908301828280156105915780601f1061056657610100808354040283529160200191610591565b820191906000526020600020905b81548152906001019060200180831161057457829003601f168201915b5050505060038301805460408051602060026001851615610100026000190190941693909304601f81018490048402820184019092528181529495949350908301828280156106215780601f106105f657610100808354040283529160200191610621565b820191906000526020600020905b81548152906001019060200180831161060457829003601f168201915b5050505060048301805460408051602060026001851615610100026000190190941693909304601f81018490048402820184019092528181529495949350908301828280156106b15780601f10610686576101008083540402835291602001916106b1565b820191906000526020600020905b81548152906001019060200180831161069457829003601f168201915b5050505050905085565b6000805460019081018083556040805160a08101825282815260208082018a81528284018a90526060830189905260808301889052938652848152919094208451815591518051929361071693908501929190910190610779565b5060408201518051610732916002840191602090910190610779565b506060820151805161074e916003840191602090910190610779565b506080820151805161076a916004840191602090910190610779565b50505050505050565b60005481565b828054600181600116156101000203166002900490600052602060002090601f016020900481019282601f106107ba57805160ff19168380011785556107e7565b828001600101855582156107e7579182015b828111156107e75782518255916020019190600101906107cc565b506107f39291506107f7565b5090565b61081191905b808211156107f357600081556001016107fd565b9056fea265627a7a723158209465fe6ebeffb41ea0af1e0424fa80b7c5448f6c87c58b347b88b96e86e2a95b64736f6c6343000510003268747470733a2f2f6d656469612e6973746f636b70686f746f2e636f6d2f70686f746f732f64656c69766572792d636f6e636570742d617369616e2d6d616e2d68616e642d616363657074696e672d612d64656c69766572792d626f7865732d66726f6d2d61742d706963747572652d6964313232313130313933393f623d31266b3d3230266d3d3132323131303139333926733d3137303636376126773d3026683d326d2d754956354851644375496f63715a6c78574d696a396a7966636637424e4e7237656769475049444d3d",
  "source": "pragma solidity >=0.5.0;\n\ncontract Blog {\n    uint256 public blogNumber;\n\n    struct BlogData {\n        uint256 id;\n        string authorName;\n        string imageUrl;\n        string title;\n        string body;\n    }\n\n    mapping(uint256 => BlogData) public titleToData;\n\n    constructor() public {\n        blogNumber++;\n        titleToData[blogNumber] = BlogData(blogNumber, 'Test101', 'https://media.istockphoto.com/photos/delivery-concept-asian-man-hand-accepting-a-delivery-boxes-from-at-picture-id1221101939?b=1&k=20&m=1221101939&s=170667a&w=0&h=2m-uIV5HQdCuIocqZlxWMij9jyfcf7BNNr7egiGPIDM=' , 'Title #1', 'This is body para...');\n    }\n\n    function createBlog(\n        string memory _authorName, \n        string memory _imageUrl, \n        string memory _title, \n        string memory _body\n        ) \n        public {\n\n        blogNumber++;\n        titleToData[blogNumber] = BlogData(blogNumber, _authorName, _imageUrl, _title, _body);\n    }\n}",
  "sourcePath": "/Users/shwetang/Projects/Personal/MERN/Blog-site/client/src/contracts/Blog.sol",
  "compiler": {
    "name": "solc",
    "version": "0.5.16+commit.9c3226ce.Emscripten.clang"
  },
  "schemaVersion": "3.4.3",
  "updatedAt": "2021-12-18T06:20:44.943Z",
  "networkType": "ethereum",
  "devdoc": {
    "methods": {}
  },
  "userdoc": {
    "methods": {}
  }
}